{
  "contractName": "Exchange",
  "abi": [
    {
      "inputs": [
        {
          "internalType": "address",
          "name": "_feeAccount",
          "type": "address"
        },
        {
          "internalType": "uint256",
          "name": "_feePercent",
          "type": "uint256"
        }
      ],
      "stateMutability": "nonpayable",
      "type": "constructor"
    },
    {
      "anonymous": false,
      "inputs": [
        {
          "indexed": false,
          "internalType": "uint256",
          "name": "id",
          "type": "uint256"
        },
        {
          "indexed": false,
          "internalType": "address",
          "name": "user",
          "type": "address"
        },
        {
          "indexed": false,
          "internalType": "address",
          "name": "tokenGet",
          "type": "address"
        },
        {
          "indexed": false,
          "internalType": "uint256",
          "name": "amountGet",
          "type": "uint256"
        },
        {
          "indexed": false,
          "internalType": "address",
          "name": "tokenGive",
          "type": "address"
        },
        {
          "indexed": false,
          "internalType": "uint256",
          "name": "amountGive",
          "type": "uint256"
        },
        {
          "indexed": false,
          "internalType": "uint256",
          "name": "timestamp",
          "type": "uint256"
        }
      ],
      "name": "Cancel",
      "type": "event"
    },
    {
      "anonymous": false,
      "inputs": [
        {
          "indexed": false,
          "internalType": "address",
          "name": "token",
          "type": "address"
        },
        {
          "indexed": false,
          "internalType": "address",
          "name": "user",
          "type": "address"
        },
        {
          "indexed": false,
          "internalType": "uint256",
          "name": "amount",
          "type": "uint256"
        },
        {
          "indexed": false,
          "internalType": "uint256",
          "name": "balance",
          "type": "uint256"
        }
      ],
      "name": "Deposit",
      "type": "event"
    },
    {
      "anonymous": false,
      "inputs": [
        {
          "indexed": false,
          "internalType": "uint256",
          "name": "id",
          "type": "uint256"
        },
        {
          "indexed": false,
          "internalType": "address",
          "name": "user",
          "type": "address"
        },
        {
          "indexed": false,
          "internalType": "address",
          "name": "tokenGet",
          "type": "address"
        },
        {
          "indexed": false,
          "internalType": "uint256",
          "name": "amountGet",
          "type": "uint256"
        },
        {
          "indexed": false,
          "internalType": "address",
          "name": "tokenGive",
          "type": "address"
        },
        {
          "indexed": false,
          "internalType": "uint256",
          "name": "amountGive",
          "type": "uint256"
        },
        {
          "indexed": false,
          "internalType": "uint256",
          "name": "timestamp",
          "type": "uint256"
        }
      ],
      "name": "Order",
      "type": "event"
    },
    {
      "anonymous": false,
      "inputs": [
        {
          "indexed": false,
          "internalType": "uint256",
          "name": "id",
          "type": "uint256"
        },
        {
          "indexed": false,
          "internalType": "address",
          "name": "user",
          "type": "address"
        },
        {
          "indexed": false,
          "internalType": "address",
          "name": "tokenGet",
          "type": "address"
        },
        {
          "indexed": false,
          "internalType": "uint256",
          "name": "amountGet",
          "type": "uint256"
        },
        {
          "indexed": false,
          "internalType": "address",
          "name": "tokenGive",
          "type": "address"
        },
        {
          "indexed": false,
          "internalType": "uint256",
          "name": "amountGive",
          "type": "uint256"
        },
        {
          "indexed": false,
          "internalType": "address",
          "name": "userFill",
          "type": "address"
        },
        {
          "indexed": false,
          "internalType": "uint256",
          "name": "timestamp",
          "type": "uint256"
        }
      ],
      "name": "Trade",
      "type": "event"
    },
    {
      "anonymous": false,
      "inputs": [
        {
          "indexed": false,
          "internalType": "address",
          "name": "token",
          "type": "address"
        },
        {
          "indexed": false,
          "internalType": "address",
          "name": "user",
          "type": "address"
        },
        {
          "indexed": false,
          "internalType": "uint256",
          "name": "amount",
          "type": "uint256"
        },
        {
          "indexed": false,
          "internalType": "uint256",
          "name": "balance",
          "type": "uint256"
        }
      ],
      "name": "Withdraw",
      "type": "event"
    },
    {
      "stateMutability": "nonpayable",
      "type": "fallback"
    },
    {
      "inputs": [],
      "name": "feeAccount",
      "outputs": [
        {
          "internalType": "address",
          "name": "",
          "type": "address"
        }
      ],
      "stateMutability": "view",
      "type": "function",
      "constant": true
    },
    {
      "inputs": [],
      "name": "feePercent",
      "outputs": [
        {
          "internalType": "uint256",
          "name": "",
          "type": "uint256"
        }
      ],
      "stateMutability": "view",
      "type": "function",
      "constant": true
    },
    {
      "inputs": [
        {
          "internalType": "uint256",
          "name": "",
          "type": "uint256"
        }
      ],
      "name": "orderCancelled",
      "outputs": [
        {
          "internalType": "bool",
          "name": "",
          "type": "bool"
        }
      ],
      "stateMutability": "view",
      "type": "function",
      "constant": true
    },
    {
      "inputs": [],
      "name": "orderCount",
      "outputs": [
        {
          "internalType": "uint256",
          "name": "",
          "type": "uint256"
        }
      ],
      "stateMutability": "view",
      "type": "function",
      "constant": true
    },
    {
      "inputs": [
        {
          "internalType": "uint256",
          "name": "",
          "type": "uint256"
        }
      ],
      "name": "orderFilled",
      "outputs": [
        {
          "internalType": "bool",
          "name": "",
          "type": "bool"
        }
      ],
      "stateMutability": "view",
      "type": "function",
      "constant": true
    },
    {
      "inputs": [
        {
          "internalType": "uint256",
          "name": "",
          "type": "uint256"
        }
      ],
      "name": "orders",
      "outputs": [
        {
          "internalType": "uint256",
          "name": "id",
          "type": "uint256"
        },
        {
          "internalType": "address",
          "name": "user",
          "type": "address"
        },
        {
          "internalType": "address",
          "name": "tokenGet",
          "type": "address"
        },
        {
          "internalType": "uint256",
          "name": "amountGet",
          "type": "uint256"
        },
        {
          "internalType": "address",
          "name": "tokenGive",
          "type": "address"
        },
        {
          "internalType": "uint256",
          "name": "amountGive",
          "type": "uint256"
        },
        {
          "internalType": "uint256",
          "name": "timestamp",
          "type": "uint256"
        }
      ],
      "stateMutability": "view",
      "type": "function",
      "constant": true
    },
    {
      "inputs": [
        {
          "internalType": "address",
          "name": "",
          "type": "address"
        },
        {
          "internalType": "address",
          "name": "",
          "type": "address"
        }
      ],
      "name": "tokens",
      "outputs": [
        {
          "internalType": "uint256",
          "name": "",
          "type": "uint256"
        }
      ],
      "stateMutability": "view",
      "type": "function",
      "constant": true
    },
    {
      "inputs": [],
      "name": "depositEther",
      "outputs": [],
      "stateMutability": "payable",
      "type": "function",
      "payable": true
    },
    {
      "inputs": [
        {
          "internalType": "uint256",
          "name": "_amount",
          "type": "uint256"
        }
      ],
      "name": "withdrawEther",
      "outputs": [],
      "stateMutability": "nonpayable",
      "type": "function"
    },
    {
      "inputs": [
        {
          "internalType": "address",
          "name": "_token",
          "type": "address"
        },
        {
          "internalType": "uint256",
          "name": "_amount",
          "type": "uint256"
        }
      ],
      "name": "depositToken",
      "outputs": [],
      "stateMutability": "nonpayable",
      "type": "function"
    },
    {
      "inputs": [
        {
          "internalType": "address",
          "name": "_token",
          "type": "address"
        },
        {
          "internalType": "uint256",
          "name": "_amount",
          "type": "uint256"
        }
      ],
      "name": "withdrawToken",
      "outputs": [],
      "stateMutability": "nonpayable",
      "type": "function"
    },
    {
      "inputs": [
        {
          "internalType": "address",
          "name": "_token",
          "type": "address"
        },
        {
          "internalType": "address",
          "name": "_user",
          "type": "address"
        }
      ],
      "name": "balanceOf",
      "outputs": [
        {
          "internalType": "uint256",
          "name": "",
          "type": "uint256"
        }
      ],
      "stateMutability": "view",
      "type": "function",
      "constant": true
    },
    {
      "inputs": [
        {
          "internalType": "address",
          "name": "_tokenGet",
          "type": "address"
        },
        {
          "internalType": "uint256",
          "name": "_amountGet",
          "type": "uint256"
        },
        {
          "internalType": "address",
          "name": "_tokenGive",
          "type": "address"
        },
        {
          "internalType": "uint256",
          "name": "_amountGive",
          "type": "uint256"
        }
      ],
      "name": "makeOrder",
      "outputs": [],
      "stateMutability": "payable",
      "type": "function",
      "payable": true
    },
    {
      "inputs": [
        {
          "internalType": "uint256",
          "name": "_id",
          "type": "uint256"
        }
      ],
      "name": "cancelOrder",
      "outputs": [],
      "stateMutability": "nonpayable",
      "type": "function"
    },
    {
      "inputs": [
        {
          "internalType": "uint256",
          "name": "_id",
          "type": "uint256"
        }
      ],
      "name": "fillOrder",
      "outputs": [],
      "stateMutability": "nonpayable",
      "type": "function"
    }
  ],
  "bytecode": "0x608060405234801561001057600080fd5b50604051610f07380380610f0783398101604081905261002f91610058565b600180546001600160a01b0319166001600160a01b039390931692909217909155600055610092565b6000806040838503121561006b57600080fd5b82516001600160a01b038116811461008257600080fd5b6020939093015192949293505050565b610e66806100a16000396000f3fe6080604052600436106100e85760003560e01c806367b830ad1161008a5780639e281a98116100595780639e281a9814610285578063a85c38ef146102a5578063e9c189661461031f578063f7888aec1461034f576100e8565b806367b830ad146102345780637fd6f15c1461025457806398ea5fca1461026a5780639a5c90aa14610272576100e8565b80634a93e0da116100c65780634a93e0da14610164578063508493bc146101a4578063514fcac7146101dc57806365e17c9d146101fc576100e8565b80632453ffa8146100f9578063338b5dea146101225780633bed33ce14610144575b3480156100f457600080fd5b600080fd5b34801561010557600080fd5b5061010f60045481565b6040519081526020015b60405180910390f35b34801561012e57600080fd5b5061014261013d366004610c58565b61036f565b005b34801561015057600080fd5b5061014261015f366004610c82565b610497565b34801561017057600080fd5b5061019461017f366004610c82565b60066020526000908152604090205460ff1681565b6040519015158152602001610119565b3480156101b057600080fd5b5061010f6101bf366004610c9b565b600260209081526000928352604080842090915290825290205481565b3480156101e857600080fd5b506101426101f7366004610c82565b61058f565b34801561020857600080fd5b5060015461021c906001600160a01b031681565b6040516001600160a01b039091168152602001610119565b34801561024057600080fd5b5061014261024f366004610c82565b61063a565b34801561026057600080fd5b5061010f60005481565b6101426106f5565b610142610280366004610cce565b610776565b34801561029157600080fd5b506101426102a0366004610c58565b610882565b3480156102b157600080fd5b5061030c6102c0366004610c82565b6003602081905260009182526040909120805460018201546002830154938301546004840154600585015460069095015493956001600160a01b03938416959084169492939091169187565b6040516101199796959493929190610d12565b34801561032b57600080fd5b5061019461033a366004610c82565b60056020526000908152604090205460ff1681565b34801561035b57600080fd5b5061010f61036a366004610c9b565b6109e5565b6001600160a01b03821661038257600080fd5b6040516323b872dd60e01b8152336004820152306024820152604481018290526001600160a01b038316906323b872dd906064016020604051808303816000875af11580156103d5573d6000803e3d6000fd5b505050506040513d601f19601f820116820180604052508101906103f99190610d50565b61040257600080fd5b6001600160a01b03821660009081526002602090815260408083203384529091529020546104309082610a12565b6001600160a01b03831660009081526002602090815260408083203380855292529182902083905590517fdcbc1c05240f31ff3ad067ef1ee35ce4997762752e3a095284754544f4c709d79261048b92869290918691610d72565b60405180910390a15050565b336000908152600080516020610e1183398151915260205260409020548111156104c057600080fd5b336000908152600080516020610e1183398151915260205260409020546104e79082610a25565b336000818152600080516020610e118339815191526020526040808220939093559151909183156108fc02918491818181858888f19350505050158015610532573d6000803e3d6000fd5b50336000818152600080516020610e1183398151915260205260408082205490517ff341246adaac6f497bc2a656f546ab9e182111d630394f0c57c710a59a2cb5679361058493929091869190610d72565b60405180910390a150565b600081815260036020526040902060018101546001600160a01b031633146105b657600080fd5b805482146105c357600080fd5b600082815260056020819052604091829020805460ff191660011790556002830154600384015460048501549285015493517f77de1da0be5f2d3b110d05c6694e5c4ff2d9da7cd23d84353ecf78c7b5acec619461048b94889433946001600160a01b039182169490939290911691904290610d12565b60008111801561064c57506004548111155b61065557600080fd5b60008181526006602052604090205460ff161561067157600080fd5b60008181526005602052604090205460ff161561068d57600080fd5b6000818152600360208190526040909120805460018201546002830154938301546004840154600585015494956106d8956001600160a01b0394851694918216939290911690610a31565b546000908152600660205260409020805460ff1916600117905550565b336000908152600080516020610e11833981519152602052604090205461071c9034610a12565b336000818152600080516020610e118339815191526020526040808220849055517fdcbc1c05240f31ff3ad067ef1ee35ce4997762752e3a095284754544f4c709d79361076c9391349190610d72565b60405180910390a1565b600454610784906001610a12565b60048181556040805160e0810182528381523360208083018281526001600160a01b038b8116858701908152606086018c81528b83166080880190815260a088018c81524260c08a0181815260009d8e526003988990529c8b902099518a55955160018a0180549187166001600160a01b0319928316179055935160028a01805491871691861691909117905591519588019590955593518689018054919093169116179055905160058401559451600690920191909155915490517f9d33853d43e3607b4cc01fdc78338ff2dca6fef7db9232dae6d3eb55fbc3b1099361087493918991899189918991610d12565b60405180910390a150505050565b6001600160a01b03821661089557600080fd5b6001600160a01b03821660009081526002602090815260408083203384529091529020548111156108c557600080fd5b6001600160a01b03821660009081526002602090815260408083203384529091529020546108f39082610a25565b6001600160a01b038316600081815260026020908152604080832033808552925291829020939093555163a9059cbb60e01b81526004810192909252602482018390529063a9059cbb906044016020604051808303816000875af115801561095f573d6000803e3d6000fd5b505050506040513d601f19601f820116820180604052508101906109839190610d50565b61098c57600080fd5b6001600160a01b0382166000908152600260209081526040808320338085529252918290205491517ff341246adaac6f497bc2a656f546ab9e182111d630394f0c57c710a59a2cb5679261048b92869290918691610d72565b6001600160a01b038083166000908152600260209081526040808320938516835292905220545b92915050565b6000610a1e8284610db1565b9392505050565b6000610a1e8284610dc4565b6000610a536064610a4d60005485610c2490919063ffffffff16565b90610c30565b9050610a8c610a628583610a12565b6001600160a01b038716600090815260026020908152604080832033845290915290205490610a25565b6001600160a01b0386811660009081526002602090815260408083203384529091528082209390935590881681522054610ac69085610a12565b6001600160a01b0386811660009081526002602090815260408083208b851684529091528082209390935560015490911681522054610b059082610a12565b6001600160a01b038087166000908152600260208181526040808420600154861685528252808420959095558784168352908152838220928a168252919091522054610b519083610a25565b6001600160a01b038481166000908152600260209081526040808320938b16835292905281812092909255338252902054610b8c9083610a12565b6001600160a01b03848116600081815260026020908152604080832033808552908352928190209590955584518c81528b8516918101919091529289168385015260608301889052608083019190915260a0820185905260c08201524260e082015290517f0dddf4182dc0fc1a311cb75f049c97403c6b8a99cf6b2229a36e7c526acb3f81918190036101000190a150505050505050565b6000610a1e8284610dd7565b6000610a1e8284610dee565b80356001600160a01b0381168114610c5357600080fd5b919050565b60008060408385031215610c6b57600080fd5b610c7483610c3c565b946020939093013593505050565b600060208284031215610c9457600080fd5b5035919050565b60008060408385031215610cae57600080fd5b610cb783610c3c565b9150610cc560208401610c3c565b90509250929050565b60008060008060808587031215610ce457600080fd5b610ced85610c3c565b935060208501359250610d0260408601610c3c565b9396929550929360600135925050565b9687526001600160a01b03958616602088015293851660408701526060860192909252909216608084015260a083019190915260c082015260e00190565b600060208284031215610d6257600080fd5b81518015158114610a1e57600080fd5b6001600160a01b0394851681529290931660208301526040820152606081019190915260800190565b634e487b7160e01b600052601160045260246000fd5b80820180821115610a0c57610a0c610d9b565b81810381811115610a0c57610a0c610d9b565b8082028115828204841417610a0c57610a0c610d9b565b600082610e0b57634e487b7160e01b600052601260045260246000fd5b50049056feac33ff75c19e70fe83507db0d683fd3465c996598dc972688b7ace676c89077ba2646970667358221220a196bdcd12747062e1e28c25b4d838b78cb2a138c6041c8f3e26fce7a9d48ff164736f6c63430008110033",
  "immutableReferences": {},
  "source": "// SPDX-License-Identifier: MIT\npragma solidity >=0.4.22 <0.9.0;\n\nimport \"@openzeppelin/contracts/utils/math/SafeMath.sol\";\nimport \"./Token.sol\";\n\ncontract Exchange {\n    using SafeMath for uint256;\n\n    // Variables\n    uint256 public feePercent;\n    address public feeAccount;\n    address constant ETHER = address(0); // store ether in token\n    mapping(address => mapping(address => uint256)) public tokens;\n    mapping(uint256 => _Order) public orders;\n    uint256 public orderCount;\n    mapping(uint256 => bool) public orderCancelled;\n    mapping(uint256 => bool) public orderFilled;\n\n    // Events\n    event Deposit(address token, address user, uint256 amount, uint256 balance);\n    event Withdraw(\n        address token,\n        address user,\n        uint256 amount,\n        uint256 balance\n    );\n    event Order(\n        uint256 id,\n        address user,\n        address tokenGet,\n        uint256 amountGet,\n        address tokenGive,\n        uint256 amountGive,\n        uint256 timestamp\n    );\n    event Cancel(\n        uint256 id,\n        address user,\n        address tokenGet,\n        uint256 amountGet,\n        address tokenGive,\n        uint256 amountGive,\n        uint256 timestamp\n    );\n    event Trade(\n        uint256 id,\n        address user,\n        address tokenGet,\n        uint256 amountGet,\n        address tokenGive,\n        uint256 amountGive,\n        address userFill,\n        uint256 timestamp\n    );\n\n    // Models\n    struct _Order {\n        uint256 id;\n        address user;\n        address tokenGet;\n        uint256 amountGet;\n        address tokenGive;\n        uint256 amountGive;\n        uint256 timestamp;\n    }\n\n    constructor(address _feeAccount, uint256 _feePercent) {\n        feeAccount = _feeAccount;\n        feePercent = _feePercent;\n    }\n\n    fallback() external {\n        revert();\n    }\n\n    function depositEther() public payable {\n        tokens[ETHER][msg.sender] = tokens[ETHER][msg.sender].add(msg.value);\n        emit Deposit(ETHER, msg.sender, msg.value, tokens[ETHER][msg.sender]);\n    }\n\n    function withdrawEther(uint256 _amount) public {\n        require(tokens[ETHER][msg.sender] >= _amount);\n        tokens[ETHER][msg.sender] = tokens[ETHER][msg.sender].sub(_amount);\n        payable(msg.sender).transfer(_amount);\n        emit Withdraw(ETHER, msg.sender, _amount, tokens[ETHER][msg.sender]);\n    }\n\n    function depositToken(address _token, uint256 _amount) public {\n        require(_token != ETHER);\n        require(Token(_token).transferFrom(msg.sender, address(this), _amount));\n        tokens[_token][msg.sender] = tokens[_token][msg.sender].add(_amount);\n        emit Deposit(_token, msg.sender, _amount, tokens[_token][msg.sender]);\n    }\n\n    function withdrawToken(address _token, uint256 _amount) public {\n        require(_token != ETHER);\n        require(tokens[_token][msg.sender] >= _amount);\n        tokens[_token][msg.sender] = tokens[_token][msg.sender].sub(_amount);\n        require(Token(_token).transfer(msg.sender, _amount));\n        emit Withdraw(_token, msg.sender, _amount, tokens[_token][msg.sender]);\n    }\n\n    function balanceOf(address _token, address _user)\n        public\n        view\n        returns (uint256)\n    {\n        return tokens[_token][_user];\n    }\n\n    function makeOrder(\n        address _tokenGet,\n        uint256 _amountGet,\n        address _tokenGive,\n        uint256 _amountGive\n    ) public payable {\n        orderCount = orderCount.add(1);\n        orders[orderCount] = _Order(\n            orderCount,\n            msg.sender,\n            _tokenGet,\n            _amountGet,\n            _tokenGive,\n            _amountGive,\n            block.timestamp\n        );\n        emit Order(\n            orderCount,\n            msg.sender,\n            _tokenGet,\n            _amountGet,\n            _tokenGive,\n            _amountGive,\n            block.timestamp\n        );\n    }\n\n    function cancelOrder(uint256 _id) public {\n        _Order storage _order = orders[_id];\n        require(address(_order.user) == msg.sender);\n        require(_order.id == _id);\n        orderCancelled[_id] = true;\n        emit Cancel(\n            _id,\n            msg.sender,\n            _order.tokenGet,\n            _order.amountGet,\n            _order.tokenGive,\n            _order.amountGive,\n            block.timestamp\n        );\n    }\n\n    function fillOrder(uint256 _id) public {\n        require(_id > 0 && _id <= orderCount);\n        require(!orderFilled[_id]);\n        require(!orderCancelled[_id]);\n        _Order storage _order = orders[_id];\n        _trade(\n            _order.id,\n            _order.user,\n            _order.tokenGet,\n            _order.amountGet,\n            _order.tokenGive,\n            _order.amountGive\n        );\n        orderFilled[_order.id] = true;\n    }\n\n    function _trade(\n        uint256 _orderId,\n        address _user,\n        address _tokenGet,\n        uint256 _amountGet,\n        address _tokenGive,\n        uint256 _amountGive\n    ) internal {\n        // mul().div(100) percentage\n        uint256 _feeAmount = _amountGive.mul(feePercent).div(100);\n\n        // excute trade\n        tokens[_tokenGet][msg.sender] = tokens[_tokenGet][msg.sender].sub(\n            _amountGet.add(_feeAmount)\n        );\n        tokens[_tokenGet][_user] = tokens[_tokenGet][_user].add(_amountGet);\n        tokens[_tokenGet][feeAccount] = tokens[_tokenGet][feeAccount].add(\n            _feeAmount\n        );\n        tokens[_tokenGive][_user] = tokens[_tokenGive][_user].sub(_amountGive);\n        tokens[_tokenGive][msg.sender] = tokens[_tokenGive][msg.sender].add(\n            _amountGive\n        );\n\n        emit Trade(\n            _orderId,\n            _user,\n            _tokenGet,\n            _amountGet,\n            _tokenGive,\n            _amountGive,\n            msg.sender,\n            block.timestamp\n        );\n    }\n}\n",
  "sourcePath": "/Users/zhangjinhui/Documents/personal-workspace/blockchain/blockchain-developer-bootcamp/src/contracts/Exchange.sol",
  "compiler": {
    "name": "solc",
    "version": "0.8.17+commit.8df45f5f.Emscripten.clang"
  },
  "schemaVersion": "3.4.10",
  "updatedAt": "2022-10-29T10:03:34.477Z",
  "networkType": "ethereum",
  "devdoc": {
    "kind": "dev",
    "methods": {},
    "version": 1
  },
  "userdoc": {
    "kind": "user",
    "methods": {},
    "version": 1
  }
}